{
  "contractName": "TaskContract",
  "abi": [
    {
      "anonymous": false,
      "inputs": [
        {
          "indexed": false,
          "internalType": "address",
          "name": "recipient",
          "type": "address"
        },
        {
          "indexed": false,
          "internalType": "uint256",
          "name": "taskId",
          "type": "uint256"
        }
      ],
      "name": "AddTask",
      "type": "event"
    },
    {
      "anonymous": false,
      "inputs": [
        {
          "indexed": false,
          "internalType": "uint256",
          "name": "taskId",
          "type": "uint256"
        },
        {
          "indexed": false,
          "internalType": "bool",
          "name": "isDeleted",
          "type": "bool"
        }
      ],
      "name": "DeleteTask",
      "type": "event"
    },
    {
      "inputs": [
        {
          "internalType": "string",
          "name": "taskText",
          "type": "string"
        },
        {
          "internalType": "bool",
          "name": "isDeleted",
          "type": "bool"
        }
      ],
      "name": "addTask",
      "outputs": [],
      "stateMutability": "nonpayable",
      "type": "function"
    },
    {
      "inputs": [],
      "name": "getMyTasks",
      "outputs": [
        {
          "components": [
            {
              "internalType": "uint256",
              "name": "id",
              "type": "uint256"
            },
            {
              "internalType": "string",
              "name": "taskText",
              "type": "string"
            },
            {
              "internalType": "bool",
              "name": "isDeleted",
              "type": "bool"
            }
          ],
          "internalType": "struct TaskContract.Task[]",
          "name": "",
          "type": "tuple[]"
        }
      ],
      "stateMutability": "view",
      "type": "function"
    },
    {
      "inputs": [
        {
          "internalType": "uint256",
          "name": "taskID",
          "type": "uint256"
        },
        {
          "internalType": "bool",
          "name": "isDeleted",
          "type": "bool"
        }
      ],
      "name": "deleteTask",
      "outputs": [],
      "stateMutability": "nonpayable",
      "type": "function"
    }
  ],
  "bytecode": "0x608060405234801561001057600080fd5b50610ee2806100206000396000f3fe608060405234801561001057600080fd5b50600436106100415760003560e01c806320df4581146100465780636e13f81814610062578063aaba290714610080575b600080fd5b610060600480360381019061005b9190610728565b61009c565b005b61006a6101bf565b6040516100779190610946565b60405180910390f35b61009a60048036038101906100959190610994565b610458565b005b60008080549050905060006040518060600160405280838152602001858152602001841515815250908060018154018082558091505060019003906000526020600020906003020160009091909190915060008201518160000155602082015181600101908161010c9190610be0565b5060408201518160020160006101000a81548160ff0219169083151502179055505050336001600083815260200190815260200160002060006101000a81548173ffffffffffffffffffffffffffffffffffffffff021916908373ffffffffffffffffffffffffffffffffffffffff1602179055507f1f54e1ba1832d428fbd7e7792beaf62b1fc5a382c207ffd614209c1413e94fda33826040516101b2929190610d02565b60405180910390a1505050565b60606000805b60008054905081101561025a573373ffffffffffffffffffffffffffffffffffffffff166001600083815260200190815260200160002060009054906101000a900473ffffffffffffffffffffffffffffffffffffffff1673ffffffffffffffffffffffffffffffffffffffff160361024757818061024390610d5a565b9250505b808061025290610d5a565b9150506101c5565b5060008167ffffffffffffffff811115610277576102766105c5565b5b6040519080825280602002602001820160405280156102b057816020015b61029d610573565b8152602001906001900390816102955790505b5090506000805b60008054905081101561044e573373ffffffffffffffffffffffffffffffffffffffff166001600083815260200190815260200160002060009054906101000a900473ffffffffffffffffffffffffffffffffffffffff1673ffffffffffffffffffffffffffffffffffffffff160361043b576000818154811061033e5761033d610da2565b5b90600052602060002090600302016040518060600160405290816000820154815260200160018201805461037190610a03565b80601f016020809104026020016040519081016040528092919081815260200182805461039d90610a03565b80156103ea5780601f106103bf576101008083540402835291602001916103ea565b820191906000526020600020905b8154815290600101906020018083116103cd57829003601f168201915b505050505081526020016002820160009054906101000a900460ff16151515158152505083838151811061042157610420610da2565b5b6020026020010181905250818061043790610d5a565b9250505b808061044690610d5a565b9150506102b7565b5081935050505090565b3373ffffffffffffffffffffffffffffffffffffffff166001600084815260200190815260200160002060009054906101000a900473ffffffffffffffffffffffffffffffffffffffff1673ffffffffffffffffffffffffffffffffffffffff16146104f9576040517f08c379a00000000000000000000000000000000000000000000000000000000081526004016104f090610e54565b60405180910390fd5b806000838154811061050e5761050d610da2565b5b906000526020600020906003020160020160006101000a81548160ff0219169083151502179055507ff88a35c3d2016c409a46570b994a17b408dbc83c14a03f521512d50b85386d068282604051610567929190610e83565b60405180910390a15050565b604051806060016040528060008152602001606081526020016000151581525090565b6000604051905090565b600080fd5b600080fd5b600080fd5b600080fd5b6000601f19601f8301169050919050565b7f4e487b7100000000000000000000000000000000000000000000000000000000600052604160045260246000fd5b6105fd826105b4565b810181811067ffffffffffffffff8211171561061c5761061b6105c5565b5b80604052505050565b600061062f610596565b905061063b82826105f4565b919050565b600067ffffffffffffffff82111561065b5761065a6105c5565b5b610664826105b4565b9050602081019050919050565b82818337600083830152505050565b600061069361068e84610640565b610625565b9050828152602081018484840111156106af576106ae6105af565b5b6106ba848285610671565b509392505050565b600082601f8301126106d7576106d66105aa565b5b81356106e7848260208601610680565b91505092915050565b60008115159050919050565b610705816106f0565b811461071057600080fd5b50565b600081359050610722816106fc565b92915050565b6000806040838503121561073f5761073e6105a0565b5b600083013567ffffffffffffffff81111561075d5761075c6105a5565b5b610769858286016106c2565b925050602061077a85828601610713565b9150509250929050565b600081519050919050565b600082825260208201905092915050565b6000819050602082019050919050565b6000819050919050565b6107c3816107b0565b82525050565b600081519050919050565b600082825260208201905092915050565b60005b838110156108035780820151818401526020810190506107e8565b83811115610812576000848401525b50505050565b6000610823826107c9565b61082d81856107d4565b935061083d8185602086016107e5565b610846816105b4565b840191505092915050565b61085a816106f0565b82525050565b600060608301600083015161087860008601826107ba565b50602083015184820360208601526108908282610818565b91505060408301516108a56040860182610851565b508091505092915050565b60006108bc8383610860565b905092915050565b6000602082019050919050565b60006108dc82610784565b6108e6818561078f565b9350836020820285016108f8856107a0565b8060005b85811015610934578484038952815161091585826108b0565b9450610920836108c4565b925060208a019950506001810190506108fc565b50829750879550505050505092915050565b6000602082019050818103600083015261096081846108d1565b905092915050565b610971816107b0565b811461097c57600080fd5b50565b60008135905061098e81610968565b92915050565b600080604083850312156109ab576109aa6105a0565b5b60006109b98582860161097f565b92505060206109ca85828601610713565b9150509250929050565b7f4e487b7100000000000000000000000000000000000000000000000000000000600052602260045260246000fd5b60006002820490506001821680610a1b57607f821691505b602082108103610a2e57610a2d6109d4565b5b50919050565b60008190508160005260206000209050919050565b60006020601f8301049050919050565b600082821b905092915050565b600060088302610a967fffffffffffffffffffffffffffffffffffffffffffffffffffffffffffffffff82610a59565b610aa08683610a59565b95508019841693508086168417925050509392505050565b6000819050919050565b6000610add610ad8610ad3846107b0565b610ab8565b6107b0565b9050919050565b6000819050919050565b610af783610ac2565b610b0b610b0382610ae4565b848454610a66565b825550505050565b600090565b610b20610b13565b610b2b818484610aee565b505050565b5b81811015610b4f57610b44600082610b18565b600181019050610b31565b5050565b601f821115610b9457610b6581610a34565b610b6e84610a49565b81016020851015610b7d578190505b610b91610b8985610a49565b830182610b30565b50505b505050565b600082821c905092915050565b6000610bb760001984600802610b99565b1980831691505092915050565b6000610bd08383610ba6565b9150826002028217905092915050565b610be9826107c9565b67ffffffffffffffff811115610c0257610c016105c5565b5b610c0c8254610a03565b610c17828285610b53565b600060209050601f831160018114610c4a5760008415610c38578287015190505b610c428582610bc4565b865550610caa565b601f198416610c5886610a34565b60005b82811015610c8057848901518255600182019150602085019450602081019050610c5b565b86831015610c9d5784890151610c99601f891682610ba6565b8355505b6001600288020188555050505b505050505050565b600073ffffffffffffffffffffffffffffffffffffffff82169050919050565b6000610cdd82610cb2565b9050919050565b610ced81610cd2565b82525050565b610cfc816107b0565b82525050565b6000604082019050610d176000830185610ce4565b610d246020830184610cf3565b9392505050565b7f4e487b7100000000000000000000000000000000000000000000000000000000600052601160045260246000fd5b6000610d65826107b0565b91507fffffffffffffffffffffffffffffffffffffffffffffffffffffffffffffffff8203610d9757610d96610d2b565b5b600182019050919050565b7f4e487b7100000000000000000000000000000000000000000000000000000000600052603260045260246000fd5b600082825260208201905092915050565b7f4f6e6c7920746865207461736b206f776e65722063616e2064656c657465207460008201527f6865207461736b00000000000000000000000000000000000000000000000000602082015250565b6000610e3e602783610dd1565b9150610e4982610de2565b604082019050919050565b60006020820190508181036000830152610e6d81610e31565b9050919050565b610e7d816106f0565b82525050565b6000604082019050610e986000830185610cf3565b610ea56020830184610e74565b939250505056fea26469706673582212203461974d74bea8af00e6d89d33f7dd2f7f6ce5d9064c32af590ff8a90745fc0964736f6c634300080f0033",
  "immutableReferences": {},
  "source": "// SPDX-License-Identifier: MIT\npragma solidity >=0.4.22 <0.9.0;\n\ncontract TaskContract {\n    event AddTask(address recipient, uint taskId);\n    event DeleteTask(uint taskId, bool isDeleted);\n\n    struct Task {\n        uint id;\n        string taskText;\n        bool isDeleted;\n    }\n\n    Task[] private tasks;\n\n    mapping(uint256 => address) taskToOwner;\n\n    function addTask(string memory taskText, bool isDeleted) external {\n        uint taskID = tasks.length;\n        tasks.push(Task(taskID, taskText, isDeleted));\n        taskToOwner[taskID] = msg.sender;\n        emit AddTask(msg.sender, taskID);\n    }\n\n    function getMyTasks() external view returns (Task[] memory) {\n        uint count = 0;\n        for (uint i = 0; i < tasks.length; i++) {\n            if (taskToOwner[i] == msg.sender) {\n                count++;\n            }\n        }\n\n        Task[] memory result = new Task[](count);\n        uint index = 0;\n        for (uint i = 0; i < tasks.length; i++) {\n            if (taskToOwner[i] == msg.sender) {\n                result[index] = tasks[i];\n                index++;\n            }\n        }\n        return result;\n    }\n\n    function deleteTask(uint taskID, bool isDeleted) external {\n        require(taskToOwner[taskID] == msg.sender, \"Only the task owner can delete the task\");\n        tasks[taskID].isDeleted = isDeleted;\n        emit DeleteTask(taskID, isDeleted);\n    }\n}\n\n",
  "sourcePath": "/home/runner/Solidity-Todo-List-with-Nextjs-Tailwind-CSS-Template/Backend/contracts/TaskContract.sol",
  "compiler": {
    "name": "solc",
    "version": "0.8.15+commit.e14f2714.Emscripten.clang"
  },
  "schemaVersion": "3.4.8",
  "updatedAt": "2023-05-31T16:48:18.277Z",
  "devdoc": {
    "kind": "dev",
    "methods": {},
    "version": 1
  },
  "userdoc": {
    "kind": "user",
    "methods": {},
    "version": 1
  }
}